:020000040800F2
:1000000068060020CD010008D1010008D3010008D6
:10001000D5010008D7010008D90100080000000040
:10002000000000000000000000000000DB010008EC
:10003000DD01000800000000DF010008E101000808
:10004000E3010008E3010008E3010008E301000800
:10005000E3010008E3010008E3010008E3010008F0
:10006000E3010008E3010008E3010008E3010008E0
:10007000E3010008E3010008E3010008E3010008D0
:10008000E3010008E3010008E3010008E3010008C0
:10009000E3010008E3010008E3010008E3010008B0
:1000A000E3010008E3010008E3010008E3010008A0
:1000B000E3010008E3010008E3010008E301000890
:1000C000E3010008E3010008E3010008E301000880
:1000D000E30100081D080008E3010008E30100082F
:1000E000E3010008E3010008E3010008E301000860
:1000F000E3010008E3010008E3010008E301000850
:10010000E3010008E3010008E3010008E30100083F
:10011000E3010008E3010008E3010008E30100082F
:10012000E3010008E3010008E3010008E30100081F
:1001300000F002F800F03AF80AA090E8000C8244BF
:100140008344AAF10107DA4501D100F02FF8AFF29C
:10015000090EBAE80F0013F0010F18BFFB1A43F0A5
:10016000010318477817000098170000103A24BFC1
:1001700078C878C1FAD8520724BF30C830C144BF0C
:1001800004680C607047000000230024002500264E
:10019000103A28BF78C1FBD8520728BF30C148BFEA
:1001A0000B6070471FB51FBD10B510BD00F02FF8D4
:1001B0001146FFF7F7FF00F0C7FB00F04DF803B45E
:1001C000FFF7F2FF03BC00F05FFB000008480047A8
:1001D000FEE7FEE7FEE7FEE7FEE7FEE7FEE7FEE7F7
:1001E000FEE7FEE703480449044A054B7047000058
:1001F0003101000868000020680600206802002025
:100200006802002070477047704770477047754616
:1002100000F028F8AE4605006946534620F0070076
:10022000854618B020B5FFF7DDFFBDE820404FF050
:1002300000064FF000074FF000084FF0000B21F0D0
:100240000701AC46ACE8C009ACE8C009ACE8C0099D
:10025000ACE8C0098D4670470446AFF300802046E5
:10026000FFF7ADFF00487047040000200C4880698C
:1002700040F020000A4988610A48006820F4706054
:10028000084908600846006840F440700860054866
:100290000C30006840F0040002490C3108607047DF
:1002A000001002400014014001464906084A9269C4
:1002B00042F00102064B9A61064A526822F0E0625F
:1002C000044B5A601A4652680A435A60704700004D
:1002D000001002400000014010B51448806940F051
:1002E0000400124988610220FFF7DEFF1048006811
:1002F000C0F313000E490860084600680D49084322
:100300000B4908600A480C30006840F0200008499A
:100310000C3108600846006840F04000086008465C
:10032000006840F08000086010BD0000001002402E
:10033000000801400000808810B50E48806940F038
:1003400004000C4988610220FFF7AEFF0A480068EC
:1003500020F00F00084908600846006840F00300DC
:10036000086005480830006840F480700249083190
:10037000086010BD001002400408014000B50020D4
:1003800015490861C8601420486100208861C8616F
:100390000846006840F001000860084640680F49C0
:1003A00008400D494860084600680D4908400A4960
:1003B00008600846006820F480200860084640680D
:1003C00020F4FE0048600020886000214FF00060AB
:1003D00000F058F800BD0000001002400000FFF8D7
:1003E000FFFFF6FE2DE9F0410746884614461D46FC
:1003F000284600F033F8C5F1040007FA00F60F2094
:10040000284100EA0800064306F00F06E21704EB55
:10041000D2625211920002F1E022D2F8002121466C
:10042000E31704EBD3635B11A4EB431C012303FA32
:100430000CF31A432046E31704EBD3635B119B00D4
:1004400003F1E023C3F800210348005D40EA0610F1
:1004500001490855BDE8F08100E400E001460723AA
:1004600023EA01021202054B18684FF6FF031840F9
:10047000034B18431043014B186070470CED00E02C
:100480000000FA05024A0A400243024B1A60704714
:1004900080FFFF1F08ED00E070B50646002415E060
:1004A00004F1B001C8B200F051F9012000F04EF99A
:1004B000102000F04BF9002504E0304600F056F91A
:1004C000681CC5B2802DF8DB601CC4B2082CE7DBC9
:1004D00070BD00000C48806940F008000A4988613E
:1004E0000A48006820F07F40084908600846006814
:1004F00040F0EE40086005480C30006840F4807021
:1005000002490C310860704700100240000C0140A5
:1005100010B501200D4908600D48D0F82C0110B924
:100520000120091F0860012000F0F0F900200749B0
:1005300008600748D0F82C0110B1012000F0E6F95E
:1005400000200249091F086010BD00009C81214263
:100550000080214210B50020084908600849C1F810
:100560009C01012000F0D2F90120044908600449EF
:10057000C1F89C0100F0CAF910BD00009881214229
:100580000080214210B54FF4FA7000F0A1F9AE20BE
:1005900000F0DCF8002000F0D9F8102000F0D6F8C8
:1005A000402000F0D3F8812000F0D0F8CF2000F0F8
:1005B000CDF8A12000F0CAF8C82000F0C7F8A620A6
:1005C00000F0C4F8A82000F0C1F83F2000F0BEF809
:1005D000D32000F0BBF8002000F0B8F8D52000F0E0
:1005E000B5F8802000F0B2F8D92000F0AFF8F12083
:1005F00000F0ACF8DA2000F0A9F8122000F0A6F81C
:10060000DB2000F0A3F8402000F0A0F8202000F04C
:100610009DF8022000F09AF88D2000F097F8142041
:1006200000F094F8A42000F091F8A62000F08EF8D5
:10063000AF2000F08BF80020FFF72EFF00210846C6
:1006400000F070F810BD00002DE9F04180460E4624
:10065000174600247D013146404600F063F800BF94
:1006600006E00D49485D00F081F86D1C601CC4B2C5
:10067000102CF6DB701CC1B2404600F053F8002489
:1006800006E00549485D00F071F86D1C601CC4B2BD
:10069000102CF6DBBDE8F081421000082DE9F04790
:1006A00006460F46904600250024A14631E018F882
:1006B00009002038C5B2782E02DD0026781CC7B2AA
:1006C0003946304600F02EF8002407E004EB05110F
:1006D000134A505C00F04AF8601CC4B2082CF5DBE9
:1006E000781CC1B2304600F01DF8002408E004EB8D
:1006F000051108310A4A505C00F038F8601CC4B299
:10070000082CF4DB06F10800C6B209F1010000F084
:10071000FF0918F809000028C9D1BDE8F0870000DA
:10072000EA12000870B504460D4605F1B001C8B2E2
:1007300000F00CF8102141EA141000F007F804F062
:100740000F0141F0010000F001F870BD10B5044642
:10075000FFF7DEFE782000F067F8002000F064F874
:10076000204600F061F8FFF7F5FE10BD10B5044615
:10077000FFF7CEFE782000F057F8402000F054F844
:10078000204600F051F8FFF7E5FE10BD30B50446F5
:100790000025FFF7F3FD1F48006840F480301D4935
:1007A000086000BF1B480068400C0028FAD04FF4D6
:1007B000806018494860A01EC4B20846406840EAFC
:1007C000844048600846406840F4803048601248E1
:1007D000006840F03200104908600E48006840F0A0
:1007E00080700C49086000BF0A480068400E00286D
:1007F000FAD00848406840F002000649486005E029
:1008000004484068C0F3870505F00305022DF7D1C1
:1008100030BD000000100240002002400148008866
:10082000704700000038014070B50446002517E00D
:1008300004F0800018B101201149086002E0002096
:100840000F49086001200E49091F086000F05EF89A
:1008500000200C49C1F898016006040E681CC5B25E
:10086000082DE5DB0120064908600649C1F898011A
:1008700000F04CF800200249091F086070BD00001C
:100880009C81214200802142014600BF7047000048
:100890004FF0E021096921F004014FF0E0221161DD
:1008A000C21700EB5272C2F3C702074B1A70194607
:1008B000097801EB4102C2EBC1114FF6FF7202EA67
:1008C000C101024A11807047000000200200002090
:1008D00001460D4A12884A434FF0E0235A61002234
:1008E0009A6101221A6100BF4FF0E022106900F006
:1008F00001021AB100F48032002AF5D000224FF034
:10090000E0231A619A6170470200002001460D4AF7
:1009100012784A434FF0E0235A6100229A61012283
:100920001A6100BF4FF0E022106900F001021AB115
:1009300000F48032002AF5D000224FF0E0231A6143
:100940009A617047000000200920FFF71FFF482030
:10095000FFF79EFF4FF41651482000F061F8FFF7B3
:10096000BBFCFFF783FCFFF7B5FDFFF70BFEFFF7BE
:10097000E3FC002211461046FFF766FE012200212B
:100980001020FFF761FE022200212020FFF75CFE0D
:10099000032200213020FFF757FE18A2002140203B
:1009A000FFF77CFE18A204210020FFF777FE23E06A
:1009B0001748006838B900201649086016A20421BB
:1009C000FFF76CFE0BE01248001D006838B90120EB
:1009D000104908600CA204210020FFF75FFEC82028
:1009E000FFF776FF0A488C30006808B9012000E064
:1009F000002007498C310860DAE7000053544D337A
:100A000032463130000000004445563D3046460035
:100A100014012142888122424445563D4F4E200018
:100A20002DE9F05F05460E46300100F0ABF9814636
:100A30002E4905FB01F000F0A5F98246494600F079
:100A4000BFF80746384600F07DF984B2204600F032
:100A500099F98346394600F075FA82464FF0834192
:100A600000F0A4F9814600F06DF980464FF6FF7062
:100A700000EA041404EB080084B21D48806940F0C9
:100A800004001B4988610846806940F48040886101
:100A90001848006820F47F6016490860084600681E
:100AA00040F40B6008601248C06840F48040104970
:100AB000C8600846C06820F48040C8600E480480C2
:100AC000001D008842F20C0108430B49091D0880F3
:100AD0000846008840F020000880022325220321D8
:100AE0000846FFF77FFCBDE8F09F000040420F0082
:100AF00000100240040801400838014090EA010F4C
:100B000048BF81F0004100F12E82421A3CBF801A9A
:100B100089184FEAD0524FF07F4C1CEA410FA2EBEC
:100B2000D15318BF9CEA026F00F03B804FF0004C9D
:100B30004CEA00204CEA012121FA03FC10EB0C0CDA
:100B40001ED202F1FF325FEA1C2040EBC25038BFD8
:100B500070471CF07F0F4FEA400C18BFBCF17F4F6D
:100B600038BF7047C3F12003994008BF20F001004F
:100B7000BCF17F4F38BF7047A0F1C04000F0DDB935
:100B80004FEA3C00000A40EBC25028BF1CF0FF0FA8
:100B90004FEA400CE6D018BFBCF17F4F38BF70471A
:100BA000EAE79CEA026F05D010EA5C0F08BF00F08C
:100BB0000040704710B500F07AF900BF64FBBE3EFC
:100BC0004FF47F0C1CEAD0121EBF1CEAD11392EA2C
:100BD0000C0F93EA0C0F00F0858090EA010F48BFDC
:100BE00042F4807240F4000C41F400002CF07F418C
:100BF00020F07F4000B58142A2EB03020FF2081CF7
:100C0000ACEB504EC0F100009EF800E04FEA4E0EF3
:100C100000FB0EFC38BF49004FEA2C1C02F5FA021B
:100C20000CFB0EF34FEACE1E4FEA112C4FEAC12106
:100C30000EEB635E42EB22420EFB0CFC4FEA1C53B0
:100C400000FB03114FEA112C4FEA01310EFB0CFCA3
:100C50004FEADC4C00FB0C11C14228BF09184CEBD9
:100C600003335DF804EB10EB410143EBC250B2F5E6
:100C70007C0F38BF704729D512F0F00F1CBF00F170
:100C8000C04000F0004070470081828384858687E1
:100C900088898B8C8D8E8F919293959697999A9C3B
:100CA0009D9FA0A2A3A5A7A8AAACAEB0B2B3B5B7AA
:100CB000B9BCBEC0C2C5C7C9CCCED1D4D7D9DCDF80
:100CC000E2E6E9ECF0F3F7FAFE0000004FEA400C30
:100CD0000CF1807CBCF17E4F28BF7047B0F1C04062
:100CE00000F02BB990EA010F0CEAD11348BF42F48F
:100CF0008072624538BF634507D213F47F0F16D068
:100D000080EA010000F00040704710B500F0CFF815
:100D1000097EFC3E00F005B880EA010000F00040CA
:100D2000704780EA010000F0004000F006B912F4BC
:100D30007F0F04BF0248704780EA010000F0FDB851
:100D40000000C07FC10DD1F19E0206DB4FEA0023F7
:100D500043F0004323FA02F07047004207D54FEA00
:100D60004001B1F1FE4F02D24FF00000704710B5C4
:100D700000F09DF849922480002070476FEA20001F
:100D800070470000B0FA80F310FA03F2C3F19D033C
:100D90000AD0D90501EB1220530638BF704700F185
:100DA000010008BF20F00100704700004FF47F0CE5
:100DB0001CEAD0121EBF1CEAD11392EA0C0F93EA70
:100DC0000C0F00F0478090EA010F48BF42F4807298
:100DD0004FF0004C4CEA00204CEA012102EB0302E8
:100DE000A0FB0113A2F50002002918BF43F0010384
:100DF0005B0028BF4FEA330342EB22425FEA132C29
:100E00004CEBC2502EBFBCEB436FB2F57C0F70476A
:100E10004FEA036CBCF1004F08BF20F00100B2F5AF
:100E20007C0F38BF70470BD582F0FF0212F5803F70
:100E3000C8BF704700F1C040D8BF00F00040704705
:100E400000F5000C5FEA4C0C48BF7047B0F1C040A1
:100E500000F073B890EA010F0CEAD11348BF42F4D6
:100E60008072624538BF634504D280EA010000F019
:100E70000040704710B500F01AF800BF8900013E2D
:100E800000F007B800F009B85FEA410C5FEA1C6C9B
:100E900008D080EA010000F050B85FEA400C5FEA39
:100EA0001C6CF6D14FF00040A0F5800070470EF1A9
:100EB000020E2EF0030E5EF8044B244204D44FEAD7
:100EC0004102B2F17F4F11D84FEA4003B3F17F4F97
:100ED0000CD80ED14FEAD07CB2F17F4F0CEB4C0C0A
:100EE0000CF1020C08BF4CEBD17C04E04FF0080C75
:100EF00001E04FEAD17C0CEB4C0324FA03F404F03C
:100F00000704B4F1040C06D20EEB840CBDE81040CB
:100F10004CF0010C6047DFE80CF0070802024FF0CC
:100F20000040A0F5800010BD0846420018BFD2F175
:100F3000807288BF00F0004010BDFF2141EAD05010
:100F4000C005704780F0004090EA010F7FF5DDADED
:100F500081F0004100F007B890EA010F48BF81F02E
:100F600000413FF5D2AD421A04D882F00042A0EB16
:100F7000020011444FEAD0524FF07F4C1CEA410F5F
:100F8000A2EBD15318BF9CEA026F4AD04FF0004C3D
:100F90004CEA00204CEA012121FA03FCB0EB0C0CD6
:100FA0000FD412F0FE0F36D05FEA4C001DD50012B0
:100FB00040EBC25038BF70471CF03F0F18BF70475E
:100FC0000BE0A2F101025FEA1C2040EBC25038BFE7
:100FD00070471CF07F0F18BF7047C3F12003994082
:100FE00014BF401E20F00100704780084FEA122312
:100FF00008BF7047B0FA80FCA2EB0C02CCF1280CC1
:1010000060FA0CF093EA122F04BF00EBC250704755
:101010004FEAC3707047130A5FEADC1008BF7047DD
:10102000F6E79CEA026F04D010EA5C0F08BF0020CC
:10103000704710B5FFF73BFF40DFF63E81F0004000
:1010400070471060028C00FE02F202FE00F800FF02
:10105000000004047E018047300F10270047807F86
:101060000000404042CC009090909090FF101116EC
:1010700010000000003F1028603F1010010E3040AB
:10108000F0008060F80700847C2424E400F800FF6E
:1010900000000000FF00844321120C03004F807FFA
:1010A00000002424A4FE2322003E22222222223EEB
:1010B0000000080601FF0106404949497F494949A6
:1010C00041000000000000000000002F00000000B0
:1010D0000700070000147F147F1400242A7F2A12BF
:1010E00000626408132300364955225000000503AE
:1010F000000000001C224100000041221C000014DE
:10110000083E08140008083E0808000000A060001F
:1011100000080808080800006060000000201008AF
:101120000402003E5149453E0000427F400000421B
:1011300061514946002141454B31001814127F107E
:10114000002745454539003C4A49493000017109AD
:10115000050300364949493600064949291E000061
:101160003636000000005636000000081422410008
:101170000014141414140000412214080002015138
:10118000090600324959513E007C1211127C007F41
:1011900049494936003E41414122007F4141221CDC
:1011A000007F49494941007F09090901003E414941
:1011B000497A007F0808087F0000417F4100002035
:1011C00040413F01007F08142241007F40404040E1
:1011D000007F020C027F007F0408107F003E414127
:1011E000413E007F09090906003E4151215E007F12
:1011F000091929460046494949310001017F010189
:10120000003F4040403F001F2040201F003F40382B
:10121000403F00631408146300070870080700616A
:101220005149454300007F41410000552A552A5548
:10123000000041417F0000040201020400404040E0
:101240004040000001020400002054545478007F04
:101250004844443800384444442000384444487FDB
:1012600000385454541800087E0901020018A4A440
:10127000A47C007F080404780000447D4000004006
:1012800080847D00007F102844000000417F4000E2
:10129000007C04180478007C080404780038444476
:1012A000443800FC242424180018242418FC007C52
:1012B0000804040800485454542000043F444020CB
:1012C000003C4040207C001C2040201C003C403062
:1012D000403C004428102844001CA0A0A07C0044EE
:1012E00064544C441414141414140000000000003E
:1012F00000000000000000000000000000F80000F6
:101300000000000000333000000000100C06100C3C
:101310000600000000000000000040C07840C078D7
:101320004000043F04043F040400007088FC0830BF
:101330000000001820FF211E0000F008F000E01857
:10134000000000211C031E211E0000F00888700010
:1013500000001E2123241927211010160E00000062
:1013600000000000000000000000000000E0180481
:101370000200000000071820400000020418E000EE
:1013800000000040201807000000404080F080402E
:1013900040000202010F01020200000000F0000004
:1013A00000000101011F0101010000000000000018
:1013B000000080B07000000000000000000000008D
:1013C0000000000101010101010100000000000016
:1013D00000000030300000000000000000008060CD
:1013E0001804006018060100000000E01008081052
:1013F000E000000F102020100F00001010F8000077
:1014000000000020203F202000000070080808880D
:1014100070000030282422213000003008888848DD
:1014200030000018202020110E000000C02010F80D
:10143000000000070424243F240000F808888808DE
:1014400008000019212020110E0000E010888818E3
:101450000000000F112020110E0000380808C838C5
:1014600008000000003F00000000007088080888A5
:101470007000001C222121221C0000E0100808102E
:10148000E0000000312222110F00000000C0C00067
:10149000000000000030300000000000008000006C
:1014A000000000008060000000000000804020106C
:1014B0000800000102040810200040404040404065
:1014C00040000404040404040400000810204080C8
:1014D00000000020100804020100007048080808FD
:1014E000F0000000003036010000C030C828E810CD
:1014F000E0000718272423140B000000C038E00088
:101500000000203C23020227382008F888888870D1
:101510000000203F202020110E00C03008080808DD
:101520003800071820202010080008F808080810C4
:10153000E000203F202020100F0008F88888E808ED
:101540001000203F20202320180008F88888E80891
:101550001000203F200003000000C03008080838B9
:10156000000007182020221E020008F808000008CA
:10157000F808203F210101213F20000808F8080851
:1015800000000020203F2020000000000808F8088C
:101590000800C08080807F00000008F888C02818FC
:1015A0000800203F20012638200008F8080000002D
:1015B0000000203F20202020300008F8F800F8F834
:1015C0000800203F003F003F200008F830C000081E
:1015D000F808203F200007183F00E0100808081016
:1015E000E0000F10202020100F0008F8080808085D
:1015F000F000203F210101010000E0100808081060
:10160000E0000F18242438504F0008F88888888894
:101610007000203F2000030C30200070880808086C
:1016200038000038202121221C00180808F808087A
:1016300018000000203F2000000008F80800000803
:10164000F808001F202020201F000878880000C80C
:101650003808000007380E010000F80800F80008FC
:10166000F800033C0700073C030008186880806806
:10167000180820302C03032C30200838C800C83844
:1016800008000000203F2000000010080808C838AB
:1016900008002038262120201800000000FE020249
:1016A00002000000007F40404000000C30C00000FD
:1016B0000000000000010638C00000020202FE0027
:1016C0000000004040407F000000000004020202D1
:1016D0000400000000000000000000000000000006
:1016E00000008080808080808080000202040000F2
:1016F00000000000000000000000000080808080EA
:1017000000000019242222223F2008F800808000D7
:101710000000003F112020110E000000008080809A
:101720000000000E112020201100000000808088A1
:10173000F800000E112020103F20000080808080E3
:101740000000001F222222221300008080F08888DF
:1017500088180020203F202000000000808080802A
:101760008000006B94949493600008F8008080805F
:101770000000203F210000203F20008098980000BA
:1017800000000020203F20200000000000809898EA
:10179000000000C08080807F000008F8000080808A
:1017A0008000203F24022D302000000808F80000AF
:1017B00000000020203F202000008080808080806A
:1017C0008000203F20003F20003F808000808080FC
:1017D0000000203F210000203F200000808080800A
:1017E0000000001F202020201F008080008080003B
:1017F000000080FFA12020110E00000000808080EA
:101800008000000E112020A0FF808080800080805A
:10181000800020203F212000010000008080808087
:1018200080000033242424241900008080E080807C
:1018300000000000001F20200000808000000080C9
:101840008000001F202020103F208080800000802A
:10185000808000010E30080601008080008000803A
:1018600080800F300C030C300F00008080008080DF
:1018700080000020312E0E3120008080800000800A
:10188000808080818E7018060100008080808080BA
:1018900080000021302C2221300000000000807CDC
:1018A000020200000000003F404000000000FF0076
:1018B000000000000000FF0000000002027C800029
:1018C00000000040403F000000000006010102024D
:1018D000040400000000000000000000FC180008E4
:1018E00000000020040000006C010008001900083E
:1018F00004000020640600008801000800000000C9
:0400000508000131BD
:00000001FF
